{
  "_format": "hh-sol-artifact-1",
  "contractName": "OnChainNFT",
  "sourceName": "contracts/ChainNFT.sol",
  "abi": [
    {
      "inputs": [],
      "stateMutability": "nonpayable",
      "type": "constructor"
    },
    {
      "inputs": [
        {
          "internalType": "address",
          "name": "sender",
          "type": "address"
        },
        {
          "internalType": "uint256",
          "name": "tokenId",
          "type": "uint256"
        },
        {
          "internalType": "address",
          "name": "owner",
          "type": "address"
        }
      ],
      "name": "ERC721IncorrectOwner",
      "type": "error"
    },
    {
      "inputs": [
        {
          "internalType": "address",
          "name": "operator",
          "type": "address"
        },
        {
          "internalType": "uint256",
          "name": "tokenId",
          "type": "uint256"
        }
      ],
      "name": "ERC721InsufficientApproval",
      "type": "error"
    },
    {
      "inputs": [
        {
          "internalType": "address",
          "name": "approver",
          "type": "address"
        }
      ],
      "name": "ERC721InvalidApprover",
      "type": "error"
    },
    {
      "inputs": [
        {
          "internalType": "address",
          "name": "operator",
          "type": "address"
        }
      ],
      "name": "ERC721InvalidOperator",
      "type": "error"
    },
    {
      "inputs": [
        {
          "internalType": "address",
          "name": "owner",
          "type": "address"
        }
      ],
      "name": "ERC721InvalidOwner",
      "type": "error"
    },
    {
      "inputs": [
        {
          "internalType": "address",
          "name": "receiver",
          "type": "address"
        }
      ],
      "name": "ERC721InvalidReceiver",
      "type": "error"
    },
    {
      "inputs": [
        {
          "internalType": "address",
          "name": "sender",
          "type": "address"
        }
      ],
      "name": "ERC721InvalidSender",
      "type": "error"
    },
    {
      "inputs": [
        {
          "internalType": "uint256",
          "name": "tokenId",
          "type": "uint256"
        }
      ],
      "name": "ERC721NonexistentToken",
      "type": "error"
    },
    {
      "inputs": [
        {
          "internalType": "address",
          "name": "owner",
          "type": "address"
        }
      ],
      "name": "OwnableInvalidOwner",
      "type": "error"
    },
    {
      "inputs": [
        {
          "internalType": "address",
          "name": "account",
          "type": "address"
        }
      ],
      "name": "OwnableUnauthorizedAccount",
      "type": "error"
    },
    {
      "anonymous": false,
      "inputs": [
        {
          "indexed": true,
          "internalType": "address",
          "name": "owner",
          "type": "address"
        },
        {
          "indexed": true,
          "internalType": "address",
          "name": "approved",
          "type": "address"
        },
        {
          "indexed": true,
          "internalType": "uint256",
          "name": "tokenId",
          "type": "uint256"
        }
      ],
      "name": "Approval",
      "type": "event"
    },
    {
      "anonymous": false,
      "inputs": [
        {
          "indexed": true,
          "internalType": "address",
          "name": "owner",
          "type": "address"
        },
        {
          "indexed": true,
          "internalType": "address",
          "name": "operator",
          "type": "address"
        },
        {
          "indexed": false,
          "internalType": "bool",
          "name": "approved",
          "type": "bool"
        }
      ],
      "name": "ApprovalForAll",
      "type": "event"
    },
    {
      "anonymous": false,
      "inputs": [
        {
          "indexed": false,
          "internalType": "uint256",
          "name": "_fromTokenId",
          "type": "uint256"
        },
        {
          "indexed": false,
          "internalType": "uint256",
          "name": "_toTokenId",
          "type": "uint256"
        }
      ],
      "name": "BatchMetadataUpdate",
      "type": "event"
    },
    {
      "anonymous": false,
      "inputs": [
        {
          "indexed": false,
          "internalType": "uint256",
          "name": "_tokenId",
          "type": "uint256"
        }
      ],
      "name": "MetadataUpdate",
      "type": "event"
    },
    {
      "anonymous": false,
      "inputs": [
        {
          "indexed": false,
          "internalType": "uint256",
          "name": "tokenId",
          "type": "uint256"
        }
      ],
      "name": "Minted",
      "type": "event"
    },
    {
      "anonymous": false,
      "inputs": [
        {
          "indexed": true,
          "internalType": "address",
          "name": "previousOwner",
          "type": "address"
        },
        {
          "indexed": true,
          "internalType": "address",
          "name": "newOwner",
          "type": "address"
        }
      ],
      "name": "OwnershipTransferred",
      "type": "event"
    },
    {
      "anonymous": false,
      "inputs": [
        {
          "indexed": true,
          "internalType": "address",
          "name": "from",
          "type": "address"
        },
        {
          "indexed": true,
          "internalType": "address",
          "name": "to",
          "type": "address"
        },
        {
          "indexed": true,
          "internalType": "uint256",
          "name": "tokenId",
          "type": "uint256"
        }
      ],
      "name": "Transfer",
      "type": "event"
    },
    {
      "inputs": [
        {
          "internalType": "address",
          "name": "to",
          "type": "address"
        },
        {
          "internalType": "uint256",
          "name": "tokenId",
          "type": "uint256"
        }
      ],
      "name": "approve",
      "outputs": [],
      "stateMutability": "nonpayable",
      "type": "function"
    },
    {
      "inputs": [
        {
          "internalType": "address",
          "name": "owner",
          "type": "address"
        }
      ],
      "name": "balanceOf",
      "outputs": [
        {
          "internalType": "uint256",
          "name": "",
          "type": "uint256"
        }
      ],
      "stateMutability": "view",
      "type": "function"
    },
    {
      "inputs": [
        {
          "internalType": "string",
          "name": "imageURI",
          "type": "string"
        }
      ],
      "name": "formatTokenURI",
      "outputs": [
        {
          "internalType": "string",
          "name": "",
          "type": "string"
        }
      ],
      "stateMutability": "pure",
      "type": "function"
    },
    {
      "inputs": [
        {
          "internalType": "uint256",
          "name": "tokenId",
          "type": "uint256"
        }
      ],
      "name": "getApproved",
      "outputs": [
        {
          "internalType": "address",
          "name": "",
          "type": "address"
        }
      ],
      "stateMutability": "view",
      "type": "function"
    },
    {
      "inputs": [
        {
          "internalType": "address",
          "name": "owner",
          "type": "address"
        },
        {
          "internalType": "address",
          "name": "operator",
          "type": "address"
        }
      ],
      "name": "isApprovedForAll",
      "outputs": [
        {
          "internalType": "bool",
          "name": "",
          "type": "bool"
        }
      ],
      "stateMutability": "view",
      "type": "function"
    },
    {
      "inputs": [
        {
          "internalType": "string",
          "name": "svg",
          "type": "string"
        }
      ],
      "name": "mint",
      "outputs": [],
      "stateMutability": "nonpayable",
      "type": "function"
    },
    {
      "inputs": [],
      "name": "name",
      "outputs": [
        {
          "internalType": "string",
          "name": "",
          "type": "string"
        }
      ],
      "stateMutability": "view",
      "type": "function"
    },
    {
      "inputs": [],
      "name": "owner",
      "outputs": [
        {
          "internalType": "address",
          "name": "",
          "type": "address"
        }
      ],
      "stateMutability": "view",
      "type": "function"
    },
    {
      "inputs": [
        {
          "internalType": "uint256",
          "name": "tokenId",
          "type": "uint256"
        }
      ],
      "name": "ownerOf",
      "outputs": [
        {
          "internalType": "address",
          "name": "",
          "type": "address"
        }
      ],
      "stateMutability": "view",
      "type": "function"
    },
    {
      "inputs": [],
      "name": "renounceOwnership",
      "outputs": [],
      "stateMutability": "nonpayable",
      "type": "function"
    },
    {
      "inputs": [
        {
          "internalType": "address",
          "name": "from",
          "type": "address"
        },
        {
          "internalType": "address",
          "name": "to",
          "type": "address"
        },
        {
          "internalType": "uint256",
          "name": "tokenId",
          "type": "uint256"
        }
      ],
      "name": "safeTransferFrom",
      "outputs": [],
      "stateMutability": "nonpayable",
      "type": "function"
    },
    {
      "inputs": [
        {
          "internalType": "address",
          "name": "from",
          "type": "address"
        },
        {
          "internalType": "address",
          "name": "to",
          "type": "address"
        },
        {
          "internalType": "uint256",
          "name": "tokenId",
          "type": "uint256"
        },
        {
          "internalType": "bytes",
          "name": "data",
          "type": "bytes"
        }
      ],
      "name": "safeTransferFrom",
      "outputs": [],
      "stateMutability": "nonpayable",
      "type": "function"
    },
    {
      "inputs": [
        {
          "internalType": "address",
          "name": "operator",
          "type": "address"
        },
        {
          "internalType": "bool",
          "name": "approved",
          "type": "bool"
        }
      ],
      "name": "setApprovalForAll",
      "outputs": [],
      "stateMutability": "nonpayable",
      "type": "function"
    },
    {
      "inputs": [
        {
          "internalType": "bytes4",
          "name": "interfaceId",
          "type": "bytes4"
        }
      ],
      "name": "supportsInterface",
      "outputs": [
        {
          "internalType": "bool",
          "name": "",
          "type": "bool"
        }
      ],
      "stateMutability": "view",
      "type": "function"
    },
    {
      "inputs": [
        {
          "internalType": "string",
          "name": "svg",
          "type": "string"
        }
      ],
      "name": "svgToImageURI",
      "outputs": [
        {
          "internalType": "string",
          "name": "",
          "type": "string"
        }
      ],
      "stateMutability": "pure",
      "type": "function"
    },
    {
      "inputs": [],
      "name": "symbol",
      "outputs": [
        {
          "internalType": "string",
          "name": "",
          "type": "string"
        }
      ],
      "stateMutability": "view",
      "type": "function"
    },
    {
      "inputs": [
        {
          "internalType": "uint256",
          "name": "tokenId",
          "type": "uint256"
        }
      ],
      "name": "tokenURI",
      "outputs": [
        {
          "internalType": "string",
          "name": "",
          "type": "string"
        }
      ],
      "stateMutability": "view",
      "type": "function"
    },
    {
      "inputs": [
        {
          "internalType": "address",
          "name": "from",
          "type": "address"
        },
        {
          "internalType": "address",
          "name": "to",
          "type": "address"
        },
        {
          "internalType": "uint256",
          "name": "tokenId",
          "type": "uint256"
        }
      ],
      "name": "transferFrom",
      "outputs": [],
      "stateMutability": "nonpayable",
      "type": "function"
    },
    {
      "inputs": [
        {
          "internalType": "address",
          "name": "newOwner",
          "type": "address"
        }
      ],
      "name": "transferOwnership",
      "outputs": [],
      "stateMutability": "nonpayable",
      "type": "function"
    }
  ],
  "bytecode": "0x60806040523480156200001157600080fd5b50336040518060400160405280600881526020017f436861696e4e46540000000000000000000000000000000000000000000000008152506040518060400160405280600381526020017f434e460000000000000000000000000000000000000000000000000000000000815250816000908162000090919062000472565b508060019081620000a2919062000472565b505050600073ffffffffffffffffffffffffffffffffffffffff168173ffffffffffffffffffffffffffffffffffffffff16036200011a5760006040517f1e4fbdf70000000000000000000000000000000000000000000000000000000081526004016200011191906200059e565b60405180910390fd5b6200012b816200013260201b60201c565b50620005bb565b6000600760009054906101000a900473ffffffffffffffffffffffffffffffffffffffff16905081600760006101000a81548173ffffffffffffffffffffffffffffffffffffffff021916908373ffffffffffffffffffffffffffffffffffffffff1602179055508173ffffffffffffffffffffffffffffffffffffffff168173ffffffffffffffffffffffffffffffffffffffff167f8be0079c531659141344cd1fd0a4f28419497f9722a3daafe3b4186f6b6457e060405160405180910390a35050565b600081519050919050565b7f4e487b7100000000000000000000000000000000000000000000000000000000600052604160045260246000fd5b7f4e487b7100000000000000000000000000000000000000000000000000000000600052602260045260246000fd5b600060028204905060018216806200027a57607f821691505b60208210810362000290576200028f62000232565b5b50919050565b60008190508160005260206000209050919050565b60006020601f8301049050919050565b600082821b905092915050565b600060088302620002fa7fffffffffffffffffffffffffffffffffffffffffffffffffffffffffffffffff82620002bb565b620003068683620002bb565b95508019841693508086168417925050509392505050565b6000819050919050565b6000819050919050565b6000620003536200034d62000347846200031e565b62000328565b6200031e565b9050919050565b6000819050919050565b6200036f8362000332565b620003876200037e826200035a565b848454620002c8565b825550505050565b600090565b6200039e6200038f565b620003ab81848462000364565b505050565b5b81811015620003d357620003c760008262000394565b600181019050620003b1565b5050565b601f8211156200042257620003ec8162000296565b620003f784620002ab565b8101602085101562000407578190505b6200041f6200041685620002ab565b830182620003b0565b50505b505050565b600082821c905092915050565b6000620004476000198460080262000427565b1980831691505092915050565b600062000462838362000434565b9150826002028217905092915050565b6200047d82620001f8565b67ffffffffffffffff81111562000499576200049862000203565b5b620004a5825462000261565b620004b2828285620003d7565b600060209050601f831160018114620004ea5760008415620004d5578287015190505b620004e1858262000454565b86555062000551565b601f198416620004fa8662000296565b60005b828110156200052457848901518255600182019150602085019450602081019050620004fd565b8683101562000544578489015162000540601f89168262000434565b8355505b6001600288020188555050505b505050505050565b600073ffffffffffffffffffffffffffffffffffffffff82169050919050565b6000620005868262000559565b9050919050565b620005988162000579565b82525050565b6000602082019050620005b560008301846200058d565b92915050565b612ba980620005cb6000396000f3fe608060405234801561001057600080fd5b50600436106101215760003560e01c8063715018a6116100ad578063b88d4fde11610071578063b88d4fde1461031a578063c87b56dd14610336578063d85d3d2714610366578063e985e9c514610382578063f2fde38b146103b257610121565b8063715018a61461028857806371aee193146102925780638da5cb5b146102c257806395d89b41146102e0578063a22cb465146102fe57610121565b806323b872dd116100f457806323b872dd146101c057806330d871c6146101dc57806342842e0e1461020c5780636352211e1461022857806370a082311461025857610121565b806301ffc9a71461012657806306fdde0314610156578063081812fc14610174578063095ea7b3146101a4575b600080fd5b610140600480360381019061013b9190611df6565b6103ce565b60405161014d9190611e3e565b60405180910390f35b61015e61042f565b60405161016b9190611ee9565b60405180910390f35b61018e60048036038101906101899190611f41565b6104c1565b60405161019b9190611faf565b60405180910390f35b6101be60048036038101906101b99190611ff6565b6104dd565b005b6101da60048036038101906101d59190612036565b6104f3565b005b6101f660048036038101906101f191906121be565b6105f5565b6040516102039190611ee9565b60405180910390f35b61022660048036038101906102219190612036565b610669565b005b610242600480360381019061023d9190611f41565b610689565b60405161024f9190611faf565b60405180910390f35b610272600480360381019061026d9190612207565b61069b565b60405161027f9190612243565b60405180910390f35b610290610755565b005b6102ac60048036038101906102a791906121be565b610769565b6040516102b99190611ee9565b60405180910390f35b6102ca6107b9565b6040516102d79190611faf565b60405180910390f35b6102e86107e3565b6040516102f59190611ee9565b60405180910390f35b6103186004803603810190610313919061228a565b610875565b005b610334600480360381019061032f919061236b565b61088b565b005b610350600480360381019061034b9190611f41565b6108a8565b60405161035d9190611ee9565b60405180910390f35b610380600480360381019061037b91906121be565b6109bb565b005b61039c600480360381019061039791906123ee565b610a46565b6040516103a99190611e3e565b60405180910390f35b6103cc60048036038101906103c79190612207565b610ada565b005b6000634906490660e01b7bffffffffffffffffffffffffffffffffffffffffffffffffffffffff1916827bffffffffffffffffffffffffffffffffffffffffffffffffffffffff19161480610428575061042782610b60565b5b9050919050565b60606000805461043e9061245d565b80601f016020809104026020016040519081016040528092919081815260200182805461046a9061245d565b80156104b75780601f1061048c576101008083540402835291602001916104b7565b820191906000526020600020905b81548152906001019060200180831161049a57829003601f168201915b5050505050905090565b60006104cc82610c42565b506104d682610cca565b9050919050565b6104ef82826104ea610d07565b610d0f565b5050565b600073ffffffffffffffffffffffffffffffffffffffff168273ffffffffffffffffffffffffffffffffffffffff16036105655760006040517f64a0ae9200000000000000000000000000000000000000000000000000000000815260040161055c9190611faf565b60405180910390fd5b60006105798383610574610d07565b610d21565b90508373ffffffffffffffffffffffffffffffffffffffff168173ffffffffffffffffffffffffffffffffffffffff16146105ef578382826040517f64283d7b0000000000000000000000000000000000000000000000000000000081526004016105e69392919061248e565b60405180910390fd5b50505050565b606060006040518060400160405280601a81526020017f646174613a696d6167652f7376672b786d6c3b6261736536342c0000000000008152509050600061063c84610f3b565b90508181604051602001610651929190612501565b60405160208183030381529060405292505050919050565b6106848383836040518060200160405280600081525061088b565b505050565b600061069482610c42565b9050919050565b60008073ffffffffffffffffffffffffffffffffffffffff168273ffffffffffffffffffffffffffffffffffffffff160361070e5760006040517f89c62b640000000000000000000000000000000000000000000000000000000081526004016107059190611faf565b60405180910390fd5b600360008373ffffffffffffffffffffffffffffffffffffffff1673ffffffffffffffffffffffffffffffffffffffff168152602001908152602001600020549050919050565b61075d6110d2565b6107676000611159565b565b60606107938260405160200161077f9190612609565b604051602081830303815290604052610f3b565b6040516020016107a39190612682565b6040516020818303038152906040529050919050565b6000600760009054906101000a900473ffffffffffffffffffffffffffffffffffffffff16905090565b6060600180546107f29061245d565b80601f016020809104026020016040519081016040528092919081815260200182805461081e9061245d565b801561086b5780601f106108405761010080835404028352916020019161086b565b820191906000526020600020905b81548152906001019060200180831161084e57829003601f168201915b5050505050905090565b610887610880610d07565b838361121f565b5050565b6108968484846104f3565b6108a28484848461138e565b50505050565b60606108b382610c42565b5060006006600084815260200190815260200160002080546108d49061245d565b80601f01602080910402602001604051908101604052809291908181526020018280546109009061245d565b801561094d5780601f106109225761010080835404028352916020019161094d565b820191906000526020600020905b81548152906001019060200180831161093057829003601f168201915b50505050509050600061095e611545565b905060008151036109735781925050506109b6565b6000825111156109a8578082604051602001610990929190612501565b604051602081830303815290604052925050506109b6565b6109b18461155c565b925050505b919050565b6109c36110d2565b60006109ce826105f5565b905060006109db82610769565b90506109e760086115c5565b60006109f360086115db565b90506109ff33826115e9565b610a098183611607565b7f176b02bb2d12439ff7a20b59f402cca16c76f50508b13ef3166a600eb719354a81604051610a389190612243565b60405180910390a150505050565b6000600560008473ffffffffffffffffffffffffffffffffffffffff1673ffffffffffffffffffffffffffffffffffffffff16815260200190815260200160002060008373ffffffffffffffffffffffffffffffffffffffff1673ffffffffffffffffffffffffffffffffffffffff16815260200190815260200160002060009054906101000a900460ff16905092915050565b610ae26110d2565b600073ffffffffffffffffffffffffffffffffffffffff168173ffffffffffffffffffffffffffffffffffffffff1603610b545760006040517f1e4fbdf7000000000000000000000000000000000000000000000000000000008152600401610b4b9190611faf565b60405180910390fd5b610b5d81611159565b50565b60007f80ac58cd000000000000000000000000000000000000000000000000000000007bffffffffffffffffffffffffffffffffffffffffffffffffffffffff1916827bffffffffffffffffffffffffffffffffffffffffffffffffffffffff19161480610c2b57507f5b5e139f000000000000000000000000000000000000000000000000000000007bffffffffffffffffffffffffffffffffffffffffffffffffffffffff1916827bffffffffffffffffffffffffffffffffffffffffffffffffffffffff1916145b80610c3b5750610c3a82611663565b5b9050919050565b600080610c4e836116cd565b9050600073ffffffffffffffffffffffffffffffffffffffff168173ffffffffffffffffffffffffffffffffffffffff1603610cc157826040517f7e273289000000000000000000000000000000000000000000000000000000008152600401610cb89190612243565b60405180910390fd5b80915050919050565b60006004600083815260200190815260200160002060009054906101000a900473ffffffffffffffffffffffffffffffffffffffff169050919050565b600033905090565b610d1c838383600161170a565b505050565b600080610d2d846116cd565b9050600073ffffffffffffffffffffffffffffffffffffffff168373ffffffffffffffffffffffffffffffffffffffff1614610d6f57610d6e8184866118cf565b5b600073ffffffffffffffffffffffffffffffffffffffff168173ffffffffffffffffffffffffffffffffffffffff1614610e0057610db160008560008061170a565b6001600360008373ffffffffffffffffffffffffffffffffffffffff1673ffffffffffffffffffffffffffffffffffffffff168152602001908152602001600020600082825403925050819055505b600073ffffffffffffffffffffffffffffffffffffffff168573ffffffffffffffffffffffffffffffffffffffff1614610e83576001600360008773ffffffffffffffffffffffffffffffffffffffff1673ffffffffffffffffffffffffffffffffffffffff168152602001908152602001600020600082825401925050819055505b846002600086815260200190815260200160002060006101000a81548173ffffffffffffffffffffffffffffffffffffffff021916908373ffffffffffffffffffffffffffffffffffffffff160217905550838573ffffffffffffffffffffffffffffffffffffffff168273ffffffffffffffffffffffffffffffffffffffff167fddf252ad1be2c89b69c2b068fc378daa952ba7f163c4a11628f55a4df523b3ef60405160405180910390a4809150509392505050565b606060008251905060008103610f6357604051806020016040528060008152509150506110cd565b60006003600283610f7491906126d3565b610f7e9190612736565b6004610f8a9190612767565b90506000602082610f9b91906126d3565b67ffffffffffffffff811115610fb457610fb3612093565b5b6040519080825280601f01601f191660200182016040528015610fe65781602001600182028036833780820191505090505b5090506000604051806060016040528060408152602001612b34604091399050600181016020830160005b8681101561108a5760038101905062ffffff818a015116603f8160121c168401518060081b905060ff603f83600c1c1686015116810190508060081b905060ff603f8360061c1686015116810190508060081b905060ff603f831686015116810190508060e01b90508084526004840193505050611011565b5060038606600181146110a457600281146110b4576110bf565b613d3d60f01b60028303526110bf565b603d60f81b60018303525b508484525050819450505050505b919050565b6110da610d07565b73ffffffffffffffffffffffffffffffffffffffff166110f86107b9565b73ffffffffffffffffffffffffffffffffffffffff16146111575761111b610d07565b6040517f118cdaa700000000000000000000000000000000000000000000000000000000815260040161114e9190611faf565b60405180910390fd5b565b6000600760009054906101000a900473ffffffffffffffffffffffffffffffffffffffff16905081600760006101000a81548173ffffffffffffffffffffffffffffffffffffffff021916908373ffffffffffffffffffffffffffffffffffffffff1602179055508173ffffffffffffffffffffffffffffffffffffffff168173ffffffffffffffffffffffffffffffffffffffff167f8be0079c531659141344cd1fd0a4f28419497f9722a3daafe3b4186f6b6457e060405160405180910390a35050565b600073ffffffffffffffffffffffffffffffffffffffff168273ffffffffffffffffffffffffffffffffffffffff160361129057816040517f5b08ba180000000000000000000000000000000000000000000000000000000081526004016112879190611faf565b60405180910390fd5b80600560008573ffffffffffffffffffffffffffffffffffffffff1673ffffffffffffffffffffffffffffffffffffffff16815260200190815260200160002060008473ffffffffffffffffffffffffffffffffffffffff1673ffffffffffffffffffffffffffffffffffffffff16815260200190815260200160002060006101000a81548160ff0219169083151502179055508173ffffffffffffffffffffffffffffffffffffffff168373ffffffffffffffffffffffffffffffffffffffff167f17307eab39ab6107e8899845ad3d59bd9653f200f220920489ca2b5937696c31836040516113819190611e3e565b60405180910390a3505050565b60008373ffffffffffffffffffffffffffffffffffffffff163b111561153f578273ffffffffffffffffffffffffffffffffffffffff1663150b7a026113d2610d07565b8685856040518563ffffffff1660e01b81526004016113f494939291906127fe565b6020604051808303816000875af192505050801561143057506040513d601f19601f8201168201806040525081019061142d919061285f565b60015b6114b4573d8060008114611460576040519150601f19603f3d011682016040523d82523d6000602084013e611465565b606091505b5060008151036114ac57836040517f64a0ae920000000000000000000000000000000000000000000000000000000081526004016114a39190611faf565b60405180910390fd5b805181602001fd5b63150b7a0260e01b7bffffffffffffffffffffffffffffffffffffffffffffffffffffffff1916817bffffffffffffffffffffffffffffffffffffffffffffffffffffffff19161461153d57836040517f64a0ae920000000000000000000000000000000000000000000000000000000081526004016115349190611faf565b60405180910390fd5b505b50505050565b606060405180602001604052806000815250905090565b606061156782610c42565b506000611572611545565b9050600081511161159257604051806020016040528060008152506115bd565b8061159c84611993565b6040516020016115ad929190612501565b6040516020818303038152906040525b915050919050565b6001816000016000828254019250508190555050565b600081600001549050919050565b611603828260405180602001604052806000815250611a61565b5050565b806006600084815260200190815260200160002090816116279190612a38565b507ff8e1a15aba9398e019f0b49df1a4fde98ee17ae345cb5f6b5e2c27f5033e8ce7826040516116579190612243565b60405180910390a15050565b60007f01ffc9a7000000000000000000000000000000000000000000000000000000007bffffffffffffffffffffffffffffffffffffffffffffffffffffffff1916827bffffffffffffffffffffffffffffffffffffffffffffffffffffffff1916149050919050565b60006002600083815260200190815260200160002060009054906101000a900473ffffffffffffffffffffffffffffffffffffffff169050919050565b80806117435750600073ffffffffffffffffffffffffffffffffffffffff168273ffffffffffffffffffffffffffffffffffffffff1614155b1561187757600061175384610c42565b9050600073ffffffffffffffffffffffffffffffffffffffff168373ffffffffffffffffffffffffffffffffffffffff16141580156117be57508273ffffffffffffffffffffffffffffffffffffffff168173ffffffffffffffffffffffffffffffffffffffff1614155b80156117d157506117cf8184610a46565b155b1561181357826040517fa9fbf51f00000000000000000000000000000000000000000000000000000000815260040161180a9190611faf565b60405180910390fd5b811561187557838573ffffffffffffffffffffffffffffffffffffffff168273ffffffffffffffffffffffffffffffffffffffff167f8c5be1e5ebec7d5bd14f71427d1e84f3dd0314c0f7b2291e5b200ac8c7c3b92560405160405180910390a45b505b836004600085815260200190815260200160002060006101000a81548173ffffffffffffffffffffffffffffffffffffffff021916908373ffffffffffffffffffffffffffffffffffffffff16021790555050505050565b6118da838383611a7d565b61198e57600073ffffffffffffffffffffffffffffffffffffffff168373ffffffffffffffffffffffffffffffffffffffff160361194f57806040517f7e2732890000000000000000000000000000000000000000000000000000000081526004016119469190612243565b60405180910390fd5b81816040517f177e802f000000000000000000000000000000000000000000000000000000008152600401611985929190612b0a565b60405180910390fd5b505050565b6060600060016119a284611b3e565b01905060008167ffffffffffffffff8111156119c1576119c0612093565b5b6040519080825280601f01601f1916602001820160405280156119f35781602001600182028036833780820191505090505b509050600082602001820190505b600115611a56578080600190039150507f3031323334353637383961626364656600000000000000000000000000000000600a86061a8153600a8581611a4a57611a49612707565b5b04945060008503611a01575b819350505050919050565b611a6b8383611c91565b611a78600084848461138e565b505050565b60008073ffffffffffffffffffffffffffffffffffffffff168373ffffffffffffffffffffffffffffffffffffffff1614158015611b3557508273ffffffffffffffffffffffffffffffffffffffff168473ffffffffffffffffffffffffffffffffffffffff161480611af65750611af58484610a46565b5b80611b3457508273ffffffffffffffffffffffffffffffffffffffff16611b1c83610cca565b73ffffffffffffffffffffffffffffffffffffffff16145b5b90509392505050565b600080600090507a184f03e93ff9f4daa797ed6e38ed64bf6a1f0100000000000000008310611b9c577a184f03e93ff9f4daa797ed6e38ed64bf6a1f0100000000000000008381611b9257611b91612707565b5b0492506040810190505b6d04ee2d6d415b85acef81000000008310611bd9576d04ee2d6d415b85acef81000000008381611bcf57611bce612707565b5b0492506020810190505b662386f26fc100008310611c0857662386f26fc100008381611bfe57611bfd612707565b5b0492506010810190505b6305f5e1008310611c31576305f5e1008381611c2757611c26612707565b5b0492506008810190505b6127108310611c56576127108381611c4c57611c4b612707565b5b0492506004810190505b60648310611c795760648381611c6f57611c6e612707565b5b0492506002810190505b600a8310611c88576001810190505b80915050919050565b600073ffffffffffffffffffffffffffffffffffffffff168273ffffffffffffffffffffffffffffffffffffffff1603611d035760006040517f64a0ae92000000000000000000000000000000000000000000000000000000008152600401611cfa9190611faf565b60405180910390fd5b6000611d1183836000610d21565b9050600073ffffffffffffffffffffffffffffffffffffffff168173ffffffffffffffffffffffffffffffffffffffff1614611d855760006040517f73c6ac6e000000000000000000000000000000000000000000000000000000008152600401611d7c9190611faf565b60405180910390fd5b505050565b6000604051905090565b600080fd5b600080fd5b60007fffffffff0000000000000000000000000000000000000000000000000000000082169050919050565b611dd381611d9e565b8114611dde57600080fd5b50565b600081359050611df081611dca565b92915050565b600060208284031215611e0c57611e0b611d94565b5b6000611e1a84828501611de1565b91505092915050565b60008115159050919050565b611e3881611e23565b82525050565b6000602082019050611e536000830184611e2f565b92915050565b600081519050919050565b600082825260208201905092915050565b60005b83811015611e93578082015181840152602081019050611e78565b60008484015250505050565b6000601f19601f8301169050919050565b6000611ebb82611e59565b611ec58185611e64565b9350611ed5818560208601611e75565b611ede81611e9f565b840191505092915050565b60006020820190508181036000830152611f038184611eb0565b905092915050565b6000819050919050565b611f1e81611f0b565b8114611f2957600080fd5b50565b600081359050611f3b81611f15565b92915050565b600060208284031215611f5757611f56611d94565b5b6000611f6584828501611f2c565b91505092915050565b600073ffffffffffffffffffffffffffffffffffffffff82169050919050565b6000611f9982611f6e565b9050919050565b611fa981611f8e565b82525050565b6000602082019050611fc46000830184611fa0565b92915050565b611fd381611f8e565b8114611fde57600080fd5b50565b600081359050611ff081611fca565b92915050565b6000806040838503121561200d5761200c611d94565b5b600061201b85828601611fe1565b925050602061202c85828601611f2c565b9150509250929050565b60008060006060848603121561204f5761204e611d94565b5b600061205d86828701611fe1565b935050602061206e86828701611fe1565b925050604061207f86828701611f2c565b9150509250925092565b600080fd5b600080fd5b7f4e487b7100000000000000000000000000000000000000000000000000000000600052604160045260246000fd5b6120cb82611e9f565b810181811067ffffffffffffffff821117156120ea576120e9612093565b5b80604052505050565b60006120fd611d8a565b905061210982826120c2565b919050565b600067ffffffffffffffff82111561212957612128612093565b5b61213282611e9f565b9050602081019050919050565b82818337600083830152505050565b600061216161215c8461210e565b6120f3565b90508281526020810184848401111561217d5761217c61208e565b5b61218884828561213f565b509392505050565b600082601f8301126121a5576121a4612089565b5b81356121b584826020860161214e565b91505092915050565b6000602082840312156121d4576121d3611d94565b5b600082013567ffffffffffffffff8111156121f2576121f1611d99565b5b6121fe84828501612190565b91505092915050565b60006020828403121561221d5761221c611d94565b5b600061222b84828501611fe1565b91505092915050565b61223d81611f0b565b82525050565b60006020820190506122586000830184612234565b92915050565b61226781611e23565b811461227257600080fd5b50565b6000813590506122848161225e565b92915050565b600080604083850312156122a1576122a0611d94565b5b60006122af85828601611fe1565b92505060206122c085828601612275565b9150509250929050565b600067ffffffffffffffff8211156122e5576122e4612093565b5b6122ee82611e9f565b9050602081019050919050565b600061230e612309846122ca565b6120f3565b90508281526020810184848401111561232a5761232961208e565b5b61233584828561213f565b509392505050565b600082601f83011261235257612351612089565b5b81356123628482602086016122fb565b91505092915050565b6000806000806080858703121561238557612384611d94565b5b600061239387828801611fe1565b94505060206123a487828801611fe1565b93505060406123b587828801611f2c565b925050606085013567ffffffffffffffff8111156123d6576123d5611d99565b5b6123e28782880161233d565b91505092959194509250565b6000806040838503121561240557612404611d94565b5b600061241385828601611fe1565b925050602061242485828601611fe1565b9150509250929050565b7f4e487b7100000000000000000000000000000000000000000000000000000000600052602260045260246000fd5b6000600282049050600182168061247557607f821691505b6020821081036124885761248761242e565b5b50919050565b60006060820190506124a36000830186611fa0565b6124b06020830185612234565b6124bd6040830184611fa0565b949350505050565b600081905092915050565b60006124db82611e59565b6124e581856124c5565b93506124f5818560208601611e75565b80840191505092915050565b600061250d82856124d0565b915061251982846124d0565b91508190509392505050565b7f7b226e616d65223a20224c434d204f4e2d434841494e4544222c20226465736360008201527f72697074696f6e223a2022412073696d706c6520535647206261736564206f6e60208201527f2d636861696e204e4654222c2022696d616765223a2200000000000000000000604082015250565b60006125a76056836124c5565b91506125b282612525565b605682019050919050565b7f227d000000000000000000000000000000000000000000000000000000000000600082015250565b60006125f36002836124c5565b91506125fe826125bd565b600282019050919050565b60006126148261259a565b915061262082846124d0565b915061262b826125e6565b915081905092915050565b7f646174613a6170706c69636174696f6e2f6a736f6e3b6261736536342c000000600082015250565b600061266c601d836124c5565b915061267782612636565b601d82019050919050565b600061268d8261265f565b915061269982846124d0565b915081905092915050565b7f4e487b7100000000000000000000000000000000000000000000000000000000600052601160045260246000fd5b60006126de82611f0b565b91506126e983611f0b565b9250828201905080821115612701576127006126a4565b5b92915050565b7f4e487b7100000000000000000000000000000000000000000000000000000000600052601260045260246000fd5b600061274182611f0b565b915061274c83611f0b565b92508261275c5761275b612707565b5b828204905092915050565b600061277282611f0b565b915061277d83611f0b565b925082820261278b81611f0b565b915082820484148315176127a2576127a16126a4565b5b5092915050565b600081519050919050565b600082825260208201905092915050565b60006127d0826127a9565b6127da81856127b4565b93506127ea818560208601611e75565b6127f381611e9f565b840191505092915050565b60006080820190506128136000830187611fa0565b6128206020830186611fa0565b61282d6040830185612234565b818103606083015261283f81846127c5565b905095945050505050565b60008151905061285981611dca565b92915050565b60006020828403121561287557612874611d94565b5b60006128838482850161284a565b91505092915050565b60008190508160005260206000209050919050565b60006020601f8301049050919050565b600082821b905092915050565b6000600883026128ee7fffffffffffffffffffffffffffffffffffffffffffffffffffffffffffffffff826128b1565b6128f886836128b1565b95508019841693508086168417925050509392505050565b6000819050919050565b600061293561293061292b84611f0b565b612910565b611f0b565b9050919050565b6000819050919050565b61294f8361291a565b61296361295b8261293c565b8484546128be565b825550505050565b600090565b61297861296b565b612983818484612946565b505050565b5b818110156129a75761299c600082612970565b600181019050612989565b5050565b601f8211156129ec576129bd8161288c565b6129c6846128a1565b810160208510156129d5578190505b6129e96129e1856128a1565b830182612988565b50505b505050565b600082821c905092915050565b6000612a0f600019846008026129f1565b1980831691505092915050565b6000612a2883836129fe565b9150826002028217905092915050565b612a4182611e59565b67ffffffffffffffff811115612a5a57612a59612093565b5b612a64825461245d565b612a6f8282856129ab565b600060209050601f831160018114612aa25760008415612a90578287015190505b612a9a8582612a1c565b865550612b02565b601f198416612ab08661288c565b60005b82811015612ad857848901518255600182019150602085019450602081019050612ab3565b86831015612af55784890151612af1601f8916826129fe565b8355505b6001600288020188555050505b505050505050565b6000604082019050612b1f6000830185611fa0565b612b2c6020830184612234565b939250505056fe4142434445464748494a4b4c4d4e4f505152535455565758595a6162636465666768696a6b6c6d6e6f707172737475767778797a303132333435363738392b2fa2646970667358221220e9b4d8306b65f3b389de0e4a3dae05b947d520d22ddc2985672e33d55002f8ea64736f6c63430008180033",
  "linkReferences": {},
  "deployedLinkReferences": {}
}